:100000000C942A000C9411020C9447000C944700A5
:100010000C9447000C9447000C9447000C94470044
:100020000C9447000C9447000C9447000C94470034
:100030000C9447000C9447000C9447000C94470024
:100040000C9447000C9447000C9447000C94470014
:100050000C94470011241FBECFE5D8E0DEBFCDBF12
:1000600010E0A0E6B0E0E0E4F7E002C005900D92F9
:10007000A236B107D9F720E0A2E6B0E001C01D9298
:10008000A536B207E1F70E9445020C949E030C943A
:10009000000060E081E40E94360261E081E40E9499
:1000A000360262E081E40E94360260E082E40E944F
:1000B000360261E082E40E94360262E082E40E943D
:1000C000360262E084E40E9432020E9471030E94C0
:1000D0007B03089580916000813009F07AC080919F
:1000E0006300811176C0811174C062E081E40E94D6
:1000F0003A0260E082E40E943A0260E081E40E94F9
:100100003E0261E081E40E943E02109264000BC056
:1001100080916000882359F00E94910380916400CF
:100120008F5F80936400809164008A3188F310921D
:1001300064000FC061E081E40E9442020E949103CA
:1001400080916000882349F0809164008F5F8093E4
:100150006400809164008A3168F362E081E40E9467
:100160003E0261E081E40E943E0260E081E40E9480
:100170003A02109264000BC00E94910380916000CB
:10018000882349F0809164008F5F809364008091A0
:1001900064008A3188F3109264000FC061E081E44A
:1001A0000E9442020E94910380916000882349F0DE
:1001B000809164008F5F80936400809164008A3135
:1001C00068F360E081E40E943E0261E081E40E9405
:1001D0003E028091600081113BC0809163008130BC
:1001E000B9F58130A9F560E082E40E943E0262E048
:1001F00082E40E943A0260E081E40E943A020E9496
:100200007D03109264000FC061E081E40E9442020D
:1002100061E082E40E9442020E94910380916400A6
:100220008F5F80936400809164008A3168F361E09D
:1002300081E40E943E0261E082E40E943E0262E0AC
:1002400082E40E943E021092630081E0809360008D
:1002500080916000811104C090916300923061F040
:1002600081116EC080916300823009F069C0809175
:100270006200813009F064C080916300823009F02F
:100280005FC060E082E40E943A0262E081E40E9482
:100290003A02109264000FC061E081E40E944202C1
:1002A00061E082E40E9442020E9491038091640016
:1002B0008F5F80936400809164008A3168F361E00D
:1002C00081E40E943E0261E082E40E943E0262E01C
:1002D00081E40E943E0260E082E40E943E0260E00F
:1002E00081E40E943A0262E082E40E943A020E94A3
:1002F0007D03109264000FC061E081E40E9442021D
:1003000061E082E40E9442020E94910380916400B5
:100310008F5F80936400809164008A3168F361E0AC
:1003200081E40E943E0261E082E40E943E0262E0BB
:1003300082E40E943E021092630081E0809360009C
:100340008091600081116CC080916300813009F060
:1003500067C090916200913009F062C0823009F06C
:100360005FC060E082E40E943A0260E081E40E94A3
:100370003A02109264000FC061E081E40E944202E0
:1003800061E082E40E9442020E9491038091640035
:100390008F5F80936400809164008A3168F361E02C
:1003A00081E40E943E0261E082E40E943E0262E03B
:1003B00081E40E943E0260E081E40E943A0260E033
:1003C00082E40E943E0262E082E40E943A020E94BD
:1003D0007D03109264000FC061E081E40E9442023C
:1003E00061E082E40E9442020E94910380916400D5
:1003F0008F5F80936400809164008A3168F361E0CC
:1004000081E40E943E0261E082E40E943E0262E0DA
:1004100082E40E943E021092630081E080936000BB
:1004200008951F920F920FB60F9211248F93C89BBD
:1004300005C081E08093630010926000CA9B05C0F4
:1004400082E08093630010926000C99B05C081E048
:1004500080936200109260008F910F900FBE0F90FA
:100460001F90189540E00E944A02089541E00E94C2
:100470004A02089541E00E94C202089540E00E94AD
:10048000C20208950E943A0308950E9449000E9402
:100490006A00FDCF823429F118F4813439F00895CF
:1004A0008334D1F1843409F452C00895413059F4B1
:1004B0002AB381E090E002C0880F991F6A95E2F7A5
:1004C000822B8ABB089541115CC02AB381E090E081
:1004D00002C0880F991F6A95E2F7809582238ABB34
:1004E0000895413059F427B381E090E002C0880FAD
:1004F000991F6A95E2F7822B87BB0895411141C08D
:1005000027B381E090E002C0880F991F6A95E2F757
:100510008095822387BB0895413059F424B381E04C
:1005200090E002C0880F991F6A95E2F7822B84BB86
:100530000895411126C024B381E090E002C0880FE5
:10054000991F6A95E2F78095822384BB0895413014
:1005500059F421B381E090E002C0880F991F6A9599
:10056000E2F7822B81BB089541110BC021B381E0DA
:1005700090E002C0880F991F6A95E2F78095822368
:1005800081BB0895823429F118F4813439F008953B
:100590008334D1F1843409F452C00895413059F4C0
:1005A0002BB381E090E002C0880F991F6A95E2F7B3
:1005B000822B8BBB089541115CC02BB381E090E08E
:1005C00002C0880F991F6A95E2F7809582238BBB42
:1005D0000895413059F428B381E090E002C0880FBB
:1005E000991F6A95E2F7822B88BB0895411141C09B
:1005F00028B381E090E002C0880F991F6A95E2F766
:100600008095822388BB0895413059F425B381E059
:1006100090E002C0880F991F6A95E2F7822B85BB94
:100620000895411126C025B381E090E002C0880FF3
:10063000991F6A95E2F78095822385BB0895413022
:1006400059F422B381E090E002C0880F991F6A95A7
:10065000E2F7822B82BB089541110BC022B381E0E7
:1006600090E002C0880F991F6A95E2F78095822377
:1006700082BB08958234A1F018F4813431F00895DA
:100680008334C9F0843411F108952BB381E090E0F4
:1006900002C0880F991F6A95E2F782278BBB0895E5
:1006A00028B381E090E002C0880F991F6A95E2F7B5
:1006B000822788BB089525B381E090E002C0880FAF
:1006C000991F6A95E2F7822785BB089522B381E0DE
:1006D00090E002C0880F991F6A95E2F7822782BBDB
:1006E00008958FB780688FBF85B7836085BF8BB74C
:1006F00080648BBF089513BE089512BE83B78560D2
:1007000083BF20E030E008C008B600FEFDCF88B708
:10071000816088BF2F5F3F4F23313105ACF313BE9B
:1007200008958DE382BF83B7856083BF08B600FE5E
:10073000FDCF88B7816088BF13BE0895F894FFCFBE
:020740000100B6
:00000001FF
